{
  "_format": "hh-sol-artifact-1",
  "contractName": "AquaStrategyComposer",
  "sourceName": "contracts/AquaStrategyComposer.sol",
  "abi": [
    {
      "inputs": [
        {
          "internalType": "address",
          "name": "_endpoint",
          "type": "address"
        },
        {
          "internalType": "address",
          "name": "_delegate",
          "type": "address"
        },
        {
          "internalType": "address",
          "name": "_aqua",
          "type": "address"
        }
      ],
      "stateMutability": "nonpayable",
      "type": "constructor"
    },
    {
      "inputs": [],
      "name": "AquaNotSet",
      "type": "error"
    },
    {
      "inputs": [
        {
          "internalType": "uint256",
          "name": "required",
          "type": "uint256"
        },
        {
          "internalType": "uint256",
          "name": "provided",
          "type": "uint256"
        }
      ],
      "name": "InsufficientFee",
      "type": "error"
    },
    {
      "inputs": [
        {
          "internalType": "address",
          "name": "app",
          "type": "address"
        }
      ],
      "name": "InvalidAppAddress",
      "type": "error"
    },
    {
      "inputs": [],
      "name": "InvalidDelegate",
      "type": "error"
    },
    {
      "inputs": [
        {
          "internalType": "uint32",
          "name": "dstEid",
          "type": "uint32"
        }
      ],
      "name": "InvalidDestinationChain",
      "type": "error"
    },
    {
      "inputs": [],
      "name": "InvalidEndpointCall",
      "type": "error"
    },
    {
      "inputs": [
        {
          "internalType": "bytes",
          "name": "options",
          "type": "bytes"
        }
      ],
      "name": "InvalidOptions",
      "type": "error"
    },
    {
      "inputs": [],
      "name": "LzTokenUnavailable",
      "type": "error"
    },
    {
      "inputs": [
        {
          "internalType": "uint32",
          "name": "eid",
          "type": "uint32"
        }
      ],
      "name": "NoPeer",
      "type": "error"
    },
    {
      "inputs": [
        {
          "internalType": "uint256",
          "name": "msgValue",
          "type": "uint256"
        }
      ],
      "name": "NotEnoughNative",
      "type": "error"
    },
    {
      "inputs": [
        {
          "internalType": "address",
          "name": "addr",
          "type": "address"
        }
      ],
      "name": "OnlyEndpoint",
      "type": "error"
    },
    {
      "inputs": [
        {
          "internalType": "uint32",
          "name": "eid",
          "type": "uint32"
        },
        {
          "internalType": "bytes32",
          "name": "sender",
          "type": "bytes32"
        }
      ],
      "name": "OnlyPeer",
      "type": "error"
    },
    {
      "inputs": [
        {
          "internalType": "address",
          "name": "caller",
          "type": "address"
        }
      ],
      "name": "OnlySelf",
      "type": "error"
    },
    {
      "inputs": [
        {
          "internalType": "address",
          "name": "owner",
          "type": "address"
        }
      ],
      "name": "OwnableInvalidOwner",
      "type": "error"
    },
    {
      "inputs": [
        {
          "internalType": "address",
          "name": "account",
          "type": "address"
        }
      ],
      "name": "OwnableUnauthorizedAccount",
      "type": "error"
    },
    {
      "inputs": [
        {
          "internalType": "address",
          "name": "token",
          "type": "address"
        }
      ],
      "name": "SafeERC20FailedOperation",
      "type": "error"
    },
    {
      "inputs": [
        {
          "internalType": "bytes32",
          "name": "canonicalId",
          "type": "bytes32"
        }
      ],
      "name": "TokenNotMapped",
      "type": "error"
    },
    {
      "anonymous": false,
      "inputs": [
        {
          "indexed": true,
          "internalType": "address",
          "name": "maker",
          "type": "address"
        },
        {
          "indexed": true,
          "internalType": "uint32",
          "name": "srcEid",
          "type": "uint32"
        },
        {
          "indexed": false,
          "internalType": "bytes32",
          "name": "strategyHash",
          "type": "bytes32"
        },
        {
          "indexed": false,
          "internalType": "bytes32",
          "name": "guid",
          "type": "bytes32"
        },
        {
          "indexed": false,
          "internalType": "address",
          "name": "app",
          "type": "address"
        },
        {
          "indexed": false,
          "internalType": "address[]",
          "name": "tokens",
          "type": "address[]"
        }
      ],
      "name": "CrossChainShipExecuted",
      "type": "event"
    },
    {
      "anonymous": false,
      "inputs": [
        {
          "indexed": true,
          "internalType": "bytes32",
          "name": "guid",
          "type": "bytes32"
        },
        {
          "indexed": true,
          "internalType": "uint32",
          "name": "srcEid",
          "type": "uint32"
        },
        {
          "indexed": false,
          "internalType": "string",
          "name": "reason",
          "type": "string"
        }
      ],
      "name": "CrossChainShipFailed",
      "type": "event"
    },
    {
      "anonymous": false,
      "inputs": [
        {
          "indexed": true,
          "internalType": "address",
          "name": "maker",
          "type": "address"
        },
        {
          "indexed": true,
          "internalType": "uint32",
          "name": "dstEid",
          "type": "uint32"
        },
        {
          "indexed": false,
          "internalType": "bytes32",
          "name": "strategyHash",
          "type": "bytes32"
        },
        {
          "indexed": false,
          "internalType": "bytes32",
          "name": "guid",
          "type": "bytes32"
        }
      ],
      "name": "CrossChainShipInitiated",
      "type": "event"
    },
    {
      "anonymous": false,
      "inputs": [
        {
          "components": [
            {
              "internalType": "uint32",
              "name": "eid",
              "type": "uint32"
            },
            {
              "internalType": "uint16",
              "name": "msgType",
              "type": "uint16"
            },
            {
              "internalType": "bytes",
              "name": "options",
              "type": "bytes"
            }
          ],
          "indexed": false,
          "internalType": "struct EnforcedOptionParam[]",
          "name": "_enforcedOptions",
          "type": "tuple[]"
        }
      ],
      "name": "EnforcedOptionSet",
      "type": "event"
    },
    {
      "anonymous": false,
      "inputs": [
        {
          "indexed": true,
          "internalType": "address",
          "name": "previousOwner",
          "type": "address"
        },
        {
          "indexed": true,
          "internalType": "address",
          "name": "newOwner",
          "type": "address"
        }
      ],
      "name": "OwnershipTransferred",
      "type": "event"
    },
    {
      "anonymous": false,
      "inputs": [
        {
          "indexed": false,
          "internalType": "uint32",
          "name": "eid",
          "type": "uint32"
        },
        {
          "indexed": false,
          "internalType": "bytes32",
          "name": "peer",
          "type": "bytes32"
        }
      ],
      "name": "PeerSet",
      "type": "event"
    },
    {
      "anonymous": false,
      "inputs": [
        {
          "indexed": true,
          "internalType": "bytes32",
          "name": "canonicalId",
          "type": "bytes32"
        },
        {
          "indexed": true,
          "internalType": "address",
          "name": "token",
          "type": "address"
        }
      ],
      "name": "TokenRegistered",
      "type": "event"
    },
    {
      "inputs": [
        {
          "internalType": "uint32",
          "name": "eid",
          "type": "uint32"
        }
      ],
      "name": "addSupportedChain",
      "outputs": [],
      "stateMutability": "nonpayable",
      "type": "function"
    },
    {
      "inputs": [
        {
          "components": [
            {
              "internalType": "uint32",
              "name": "srcEid",
              "type": "uint32"
            },
            {
              "internalType": "bytes32",
              "name": "sender",
              "type": "bytes32"
            },
            {
              "internalType": "uint64",
              "name": "nonce",
              "type": "uint64"
            }
          ],
          "internalType": "struct Origin",
          "name": "origin",
          "type": "tuple"
        }
      ],
      "name": "allowInitializePath",
      "outputs": [
        {
          "internalType": "bool",
          "name": "",
          "type": "bool"
        }
      ],
      "stateMutability": "view",
      "type": "function"
    },
    {
      "inputs": [],
      "name": "aqua",
      "outputs": [
        {
          "internalType": "contract IAqua",
          "name": "",
          "type": "address"
        }
      ],
      "stateMutability": "view",
      "type": "function"
    },
    {
      "inputs": [
        {
          "internalType": "uint32",
          "name": "_eid",
          "type": "uint32"
        },
        {
          "internalType": "uint16",
          "name": "_msgType",
          "type": "uint16"
        },
        {
          "internalType": "bytes",
          "name": "_extraOptions",
          "type": "bytes"
        }
      ],
      "name": "combineOptions",
      "outputs": [
        {
          "internalType": "bytes",
          "name": "",
          "type": "bytes"
        }
      ],
      "stateMutability": "view",
      "type": "function"
    },
    {
      "inputs": [
        {
          "internalType": "address",
          "name": "maker",
          "type": "address"
        },
        {
          "internalType": "bytes32",
          "name": "strategyHash",
          "type": "bytes32"
        }
      ],
      "name": "crossChainStrategies",
      "outputs": [
        {
          "internalType": "uint32",
          "name": "sourceEid",
          "type": "uint32"
        },
        {
          "internalType": "address",
          "name": "sourceMaker",
          "type": "address"
        },
        {
          "internalType": "bool",
          "name": "hasVirtualLiquidity",
          "type": "bool"
        },
        {
          "internalType": "uint256",
          "name": "timestamp",
          "type": "uint256"
        }
      ],
      "stateMutability": "view",
      "type": "function"
    },
    {
      "inputs": [],
      "name": "endpoint",
      "outputs": [
        {
          "internalType": "contract ILayerZeroEndpointV2",
          "name": "",
          "type": "address"
        }
      ],
      "stateMutability": "view",
      "type": "function"
    },
    {
      "inputs": [
        {
          "internalType": "uint32",
          "name": "eid",
          "type": "uint32"
        },
        {
          "internalType": "uint16",
          "name": "msgType",
          "type": "uint16"
        }
      ],
      "name": "enforcedOptions",
      "outputs": [
        {
          "internalType": "bytes",
          "name": "enforcedOption",
          "type": "bytes"
        }
      ],
      "stateMutability": "view",
      "type": "function"
    },
    {
      "inputs": [
        {
          "internalType": "uint32",
          "name": "srcEid",
          "type": "uint32"
        },
        {
          "internalType": "bytes32",
          "name": "guid",
          "type": "bytes32"
        },
        {
          "internalType": "address",
          "name": "maker",
          "type": "address"
        },
        {
          "internalType": "address",
          "name": "dstApp",
          "type": "address"
        },
        {
          "internalType": "bytes",
          "name": "strategy",
          "type": "bytes"
        },
        {
          "internalType": "bytes32[]",
          "name": "tokenIds",
          "type": "bytes32[]"
        },
        {
          "internalType": "uint256[]",
          "name": "amounts",
          "type": "uint256[]"
        }
      ],
      "name": "handleShip",
      "outputs": [],
      "stateMutability": "nonpayable",
      "type": "function"
    },
    {
      "inputs": [
        {
          "components": [
            {
              "internalType": "uint32",
              "name": "srcEid",
              "type": "uint32"
            },
            {
              "internalType": "bytes32",
              "name": "sender",
              "type": "bytes32"
            },
            {
              "internalType": "uint64",
              "name": "nonce",
              "type": "uint64"
            }
          ],
          "internalType": "struct Origin",
          "name": "",
          "type": "tuple"
        },
        {
          "internalType": "bytes",
          "name": "",
          "type": "bytes"
        },
        {
          "internalType": "address",
          "name": "_sender",
          "type": "address"
        }
      ],
      "name": "isComposeMsgSender",
      "outputs": [
        {
          "internalType": "bool",
          "name": "",
          "type": "bool"
        }
      ],
      "stateMutability": "view",
      "type": "function"
    },
    {
      "inputs": [
        {
          "components": [
            {
              "internalType": "uint32",
              "name": "srcEid",
              "type": "uint32"
            },
            {
              "internalType": "bytes32",
              "name": "sender",
              "type": "bytes32"
            },
            {
              "internalType": "uint64",
              "name": "nonce",
              "type": "uint64"
            }
          ],
          "internalType": "struct Origin",
          "name": "_origin",
          "type": "tuple"
        },
        {
          "internalType": "bytes32",
          "name": "_guid",
          "type": "bytes32"
        },
        {
          "internalType": "bytes",
          "name": "_message",
          "type": "bytes"
        },
        {
          "internalType": "address",
          "name": "_executor",
          "type": "address"
        },
        {
          "internalType": "bytes",
          "name": "_extraData",
          "type": "bytes"
        }
      ],
      "name": "lzReceive",
      "outputs": [],
      "stateMutability": "payable",
      "type": "function"
    },
    {
      "inputs": [
        {
          "internalType": "address",
          "name": "maker",
          "type": "address"
        }
      ],
      "name": "makerNonces",
      "outputs": [
        {
          "internalType": "uint256",
          "name": "nonce",
          "type": "uint256"
        }
      ],
      "stateMutability": "view",
      "type": "function"
    },
    {
      "inputs": [
        {
          "internalType": "uint32",
          "name": "",
          "type": "uint32"
        },
        {
          "internalType": "bytes32",
          "name": "",
          "type": "bytes32"
        }
      ],
      "name": "nextNonce",
      "outputs": [
        {
          "internalType": "uint64",
          "name": "nonce",
          "type": "uint64"
        }
      ],
      "stateMutability": "view",
      "type": "function"
    },
    {
      "inputs": [],
      "name": "oAppVersion",
      "outputs": [
        {
          "internalType": "uint64",
          "name": "senderVersion",
          "type": "uint64"
        },
        {
          "internalType": "uint64",
          "name": "receiverVersion",
          "type": "uint64"
        }
      ],
      "stateMutability": "pure",
      "type": "function"
    },
    {
      "inputs": [],
      "name": "owner",
      "outputs": [
        {
          "internalType": "address",
          "name": "",
          "type": "address"
        }
      ],
      "stateMutability": "view",
      "type": "function"
    },
    {
      "inputs": [
        {
          "internalType": "uint32",
          "name": "eid",
          "type": "uint32"
        }
      ],
      "name": "peers",
      "outputs": [
        {
          "internalType": "bytes32",
          "name": "peer",
          "type": "bytes32"
        }
      ],
      "stateMutability": "view",
      "type": "function"
    },
    {
      "inputs": [
        {
          "internalType": "uint32",
          "name": "dstEid",
          "type": "uint32"
        },
        {
          "internalType": "address",
          "name": "dstApp",
          "type": "address"
        },
        {
          "internalType": "bytes",
          "name": "strategy",
          "type": "bytes"
        },
        {
          "internalType": "bytes32[]",
          "name": "tokenIds",
          "type": "bytes32[]"
        },
        {
          "internalType": "uint256[]",
          "name": "amounts",
          "type": "uint256[]"
        },
        {
          "internalType": "bytes",
          "name": "options",
          "type": "bytes"
        },
        {
          "internalType": "bool",
          "name": "payInLzToken",
          "type": "bool"
        }
      ],
      "name": "quoteShipStrategy",
      "outputs": [
        {
          "components": [
            {
              "internalType": "uint256",
              "name": "nativeFee",
              "type": "uint256"
            },
            {
              "internalType": "uint256",
              "name": "lzTokenFee",
              "type": "uint256"
            }
          ],
          "internalType": "struct MessagingFee",
          "name": "fee",
          "type": "tuple"
        }
      ],
      "stateMutability": "view",
      "type": "function"
    },
    {
      "inputs": [
        {
          "internalType": "bytes32",
          "name": "canonicalId",
          "type": "bytes32"
        },
        {
          "internalType": "address",
          "name": "token",
          "type": "address"
        }
      ],
      "name": "registerToken",
      "outputs": [],
      "stateMutability": "nonpayable",
      "type": "function"
    },
    {
      "inputs": [
        {
          "internalType": "bytes32[]",
          "name": "canonicalIds",
          "type": "bytes32[]"
        },
        {
          "internalType": "address[]",
          "name": "tokens",
          "type": "address[]"
        }
      ],
      "name": "registerTokens",
      "outputs": [],
      "stateMutability": "nonpayable",
      "type": "function"
    },
    {
      "inputs": [
        {
          "internalType": "uint32",
          "name": "eid",
          "type": "uint32"
        },
        {
          "internalType": "address",
          "name": "app",
          "type": "address"
        }
      ],
      "name": "removeApp",
      "outputs": [],
      "stateMutability": "nonpayable",
      "type": "function"
    },
    {
      "inputs": [
        {
          "internalType": "uint32",
          "name": "eid",
          "type": "uint32"
        }
      ],
      "name": "removeSupportedChain",
      "outputs": [],
      "stateMutability": "nonpayable",
      "type": "function"
    },
    {
      "inputs": [],
      "name": "renounceOwnership",
      "outputs": [],
      "stateMutability": "nonpayable",
      "type": "function"
    },
    {
      "inputs": [
        {
          "internalType": "address",
          "name": "_aqua",
          "type": "address"
        }
      ],
      "name": "setAqua",
      "outputs": [],
      "stateMutability": "nonpayable",
      "type": "function"
    },
    {
      "inputs": [
        {
          "internalType": "address",
          "name": "_delegate",
          "type": "address"
        }
      ],
      "name": "setDelegate",
      "outputs": [],
      "stateMutability": "nonpayable",
      "type": "function"
    },
    {
      "inputs": [
        {
          "components": [
            {
              "internalType": "uint32",
              "name": "eid",
              "type": "uint32"
            },
            {
              "internalType": "uint16",
              "name": "msgType",
              "type": "uint16"
            },
            {
              "internalType": "bytes",
              "name": "options",
              "type": "bytes"
            }
          ],
          "internalType": "struct EnforcedOptionParam[]",
          "name": "_enforcedOptions",
          "type": "tuple[]"
        }
      ],
      "name": "setEnforcedOptions",
      "outputs": [],
      "stateMutability": "nonpayable",
      "type": "function"
    },
    {
      "inputs": [
        {
          "internalType": "uint32",
          "name": "_eid",
          "type": "uint32"
        },
        {
          "internalType": "bytes32",
          "name": "_peer",
          "type": "bytes32"
        }
      ],
      "name": "setPeer",
      "outputs": [],
      "stateMutability": "nonpayable",
      "type": "function"
    },
    {
      "inputs": [
        {
          "internalType": "uint32",
          "name": "dstEid",
          "type": "uint32"
        },
        {
          "internalType": "address",
          "name": "dstApp",
          "type": "address"
        },
        {
          "internalType": "bytes",
          "name": "strategy",
          "type": "bytes"
        },
        {
          "internalType": "bytes32[]",
          "name": "tokenIds",
          "type": "bytes32[]"
        },
        {
          "internalType": "uint256[]",
          "name": "amounts",
          "type": "uint256[]"
        },
        {
          "internalType": "bytes",
          "name": "options",
          "type": "bytes"
        }
      ],
      "name": "shipStrategyToChain",
      "outputs": [
        {
          "components": [
            {
              "internalType": "bytes32",
              "name": "guid",
              "type": "bytes32"
            },
            {
              "internalType": "uint64",
              "name": "nonce",
              "type": "uint64"
            },
            {
              "components": [
                {
                  "internalType": "uint256",
                  "name": "nativeFee",
                  "type": "uint256"
                },
                {
                  "internalType": "uint256",
                  "name": "lzTokenFee",
                  "type": "uint256"
                }
              ],
              "internalType": "struct MessagingFee",
              "name": "fee",
              "type": "tuple"
            }
          ],
          "internalType": "struct MessagingReceipt",
          "name": "receipt",
          "type": "tuple"
        }
      ],
      "stateMutability": "payable",
      "type": "function"
    },
    {
      "inputs": [
        {
          "internalType": "bytes32",
          "name": "guid",
          "type": "bytes32"
        }
      ],
      "name": "shippedStrategies",
      "outputs": [
        {
          "internalType": "address",
          "name": "maker",
          "type": "address"
        },
        {
          "internalType": "uint32",
          "name": "dstEid",
          "type": "uint32"
        },
        {
          "internalType": "bytes32",
          "name": "strategyHash",
          "type": "bytes32"
        },
        {
          "internalType": "uint256",
          "name": "timestamp",
          "type": "uint256"
        },
        {
          "internalType": "bool",
          "name": "confirmed",
          "type": "bool"
        }
      ],
      "stateMutability": "view",
      "type": "function"
    },
    {
      "inputs": [
        {
          "internalType": "uint32",
          "name": "eid",
          "type": "uint32"
        }
      ],
      "name": "supportedChains",
      "outputs": [
        {
          "internalType": "bool",
          "name": "supported",
          "type": "bool"
        }
      ],
      "stateMutability": "view",
      "type": "function"
    },
    {
      "inputs": [
        {
          "internalType": "bytes32",
          "name": "canonicalId",
          "type": "bytes32"
        }
      ],
      "name": "tokenRegistry",
      "outputs": [
        {
          "internalType": "address",
          "name": "token",
          "type": "address"
        }
      ],
      "stateMutability": "view",
      "type": "function"
    },
    {
      "inputs": [
        {
          "internalType": "address",
          "name": "newOwner",
          "type": "address"
        }
      ],
      "name": "transferOwnership",
      "outputs": [],
      "stateMutability": "nonpayable",
      "type": "function"
    },
    {
      "inputs": [
        {
          "internalType": "uint32",
          "name": "eid",
          "type": "uint32"
        },
        {
          "internalType": "address",
          "name": "app",
          "type": "address"
        }
      ],
      "name": "whitelistApp",
      "outputs": [],
      "stateMutability": "nonpayable",
      "type": "function"
    },
    {
      "inputs": [
        {
          "internalType": "uint32",
          "name": "eid",
          "type": "uint32"
        },
        {
          "internalType": "address",
          "name": "app",
          "type": "address"
        }
      ],
      "name": "whitelistedApps",
      "outputs": [
        {
          "internalType": "bool",
          "name": "whitelisted",
          "type": "bool"
        }
      ],
      "stateMutability": "view",
      "type": "function"
    },
    {
      "inputs": [],
      "name": "withdraw",
      "outputs": [],
      "stateMutability": "nonpayable",
      "type": "function"
    }
  ],
  "bytecode": "0x60a06040523480156200001157600080fd5b5060405162003291380380620032918339810160408190526200003491620001ab565b82828181806001600160a01b0381166200006857604051631e4fbdf760e01b81526000600482015260240160405180910390fd5b62000073816200013e565b506001600160a01b038083166080528116620000a257604051632d618d8160e21b815260040160405180910390fd5b60805160405163ca5eb5e160e01b81526001600160a01b0383811660048301529091169063ca5eb5e190602401600060405180830381600087803b158015620000ea57600080fd5b505af1158015620000ff573d6000803e3d6000fd5b505050506001600160a01b038516159350620001359250505057600380546001600160a01b0319166001600160a01b0383161790555b505050620001f5565b600080546001600160a01b038381166001600160a01b0319831681178455604051919092169283917f8be0079c531659141344cd1fd0a4f28419497f9722a3daafe3b4186f6b6457e09190a35050565b80516001600160a01b0381168114620001a657600080fd5b919050565b600080600060608486031215620001c157600080fd5b620001cc846200018e565b9250620001dc602085016200018e565b9150620001ec604085016200018e565b90509250925092565b6080516130566200023b60003960008181610563015281816107bf01528181611576015281816118f201528181611a4001528181611c820152611d3901526130566000f3fe6080604052600436106101ee5760003560e01c8063715018a61161010d578063b98bd070116100a0578063ca5eb5e11161006f578063ca5eb5e11461071d578063e8f898bd1461073d578063f2fde38b1461075d578063fe6a87051461077d578063ff7bd03d1461079d57600080fd5b8063b98bd07014610690578063bb0b6a53146106b0578063bc70b354146106dd578063c15c4b37146106fd57600080fd5b806382726b37116100dc57806382726b37146106125780638da5cb5b14610632578063913c78ab146106505780639afc28181461067057600080fd5b8063715018a6146105855780637591e8251461059a5780637d25a05e146105ba57806382413eac146105f257600080fd5b80633ccfd60b11610185578063509645861161015457806350964586146104e45780635535d461146105045780635a2fd3d2146105315780635e280f111461055157600080fd5b80633ccfd60b1461037357806342cdec3b14610388578063439875e51461042257806346d8d7af1461044f57600080fd5b8063248514dd116101c1578063248514dd146102b85780632ded0fb5146102f85780633400288b14610318578063342c2c071461033857600080fd5b806303e2fecd146101f35780631043fa391461023357806313137d651461028157806317442b7014610296575b600080fd5b3480156101ff57600080fd5b5061022061020e366004611e93565b60076020526000908152604090205481565b6040519081526020015b60405180910390f35b34801561023f57600080fd5b5061026961024e366004611eb7565b6004602052600090815260409020546001600160a01b031681565b6040516001600160a01b03909116815260200161022a565b61029461028f366004611f30565b6107bd565b005b3480156102a257600080fd5b506040805160018152600260208201520161022a565b3480156102c457600080fd5b506102e86102d3366004611fe3565b60056020526000908152604090205460ff1681565b604051901515815260200161022a565b34801561030457600080fd5b50610294610313366004611ffe565b61087d565b34801561032457600080fd5b5061029461033336600461202e565b61092c565b34801561034457600080fd5b506102e8610353366004612058565b600660209081526000928352604080842090915290825290205460ff1681565b34801561037f57600080fd5b50610294610942565b34801561039457600080fd5b506103ed6103a3366004612084565b60096020908152600092835260408084209091529082529020805460019091015463ffffffff82169164010000000081046001600160a01b031691600160c01b90910460ff169084565b6040805163ffffffff90951685526001600160a01b03909316602085015290151591830191909152606082015260800161022a565b34801561042e57600080fd5b5061044261043d3660046120f6565b610987565b60405161022a91906121ef565b34801561045b57600080fd5b506104ab61046a366004611eb7565b60086020526000908152604090208054600182015460028301546003909301546001600160a01b03831693600160a01b90930463ffffffff16929060ff1685565b604080516001600160a01b03909616865263ffffffff90941660208601529284019190915260608301521515608082015260a00161022a565b3480156104f057600080fd5b506102946104ff366004611fe3565b610a43565b34801561051057600080fd5b5061052461051f366004612218565b610a6c565b60405161022a919061229b565b34801561053d57600080fd5b5061029461054c366004612058565b610b11565b34801561055d57600080fd5b506102697f000000000000000000000000000000000000000000000000000000000000000081565b34801561059157600080fd5b50610294610b4d565b3480156105a657600080fd5b506102946105b5366004611e93565b610b61565b3480156105c657600080fd5b506105da6105d536600461202e565b610bd8565b6040516001600160401b03909116815260200161022a565b3480156105fe57600080fd5b506102e861060d3660046122ae565b610be1565b34801561061e57600080fd5b5061029461062d366004612314565b610bf6565b34801561063e57600080fd5b506000546001600160a01b0316610269565b34801561065c57600080fd5b5061029461066b3660046124f2565b610dbb565b61068361067e3660046125b9565b61109d565b60405161022a91906126a0565b34801561069c57600080fd5b506102946106ab3660046126e2565b611367565b3480156106bc57600080fd5b506102206106cb366004611fe3565b60016020526000908152604090205481565b3480156106e957600080fd5b506105246106f8366004612723565b611381565b34801561070957600080fd5b50610294610718366004611fe3565b611529565b34801561072957600080fd5b50610294610738366004611e93565b61154f565b34801561074957600080fd5b50610294610758366004612058565b6115ce565b34801561076957600080fd5b50610294610778366004611e93565b61160d565b34801561078957600080fd5b50600354610269906001600160a01b031681565b3480156107a957600080fd5b506102e86107b8366004612777565b611648565b7f00000000000000000000000000000000000000000000000000000000000000006001600160a01b0316331461080d576040516391ac5e4f60e01b81523360048201526024015b60405180910390fd5b6020870180359061082790610822908a611fe3565b61167e565b14610865576108396020880188611fe3565b60405163309afaf360e21b815263ffffffff909116600482015260208801356024820152604401610804565b610874878787878787876116ba565b50505050505050565b61088561185a565b6001600160a01b0381166108d35760405162461bcd60e51b8152602060048201526015602482015274496e76616c696420746f6b656e206164647265737360581b6044820152606401610804565b60008281526004602052604080822080546001600160a01b0319166001600160a01b0385169081179091559051909184917f5480718cbffecdb87b0dda598e1ec366b45a645327b3d98494a91e9594981f049190a35050565b61093461185a565b61093e8282611887565b5050565b61094a61185a565b600080546040516001600160a01b03909116914780156108fc02929091818181858888f19350505050158015610984573d6000803e3d6000fd5b50565b60408051808201909152600080825260208201526000338c8c8c8c8c8c8c60076000336001600160a01b03166001600160a01b03168152602001908152602001600020546040516020016109e3999897969594939291906127ee565b60408051601f198184030181526020601f88018190048102840181019092528683529250610a32918f9184919089908990819084018382808284376000920191909152508992506118dc915050565b9d9c50505050505050505050505050565b610a4b61185a565b63ffffffff166000908152600560205260409020805460ff19166001179055565b600260209081526000928352604080842090915290825290208054610a909061285a565b80601f0160208091040260200160405190810160405280929190818152602001828054610abc9061285a565b8015610b095780601f10610ade57610100808354040283529160200191610b09565b820191906000526020600020905b815481529060010190602001808311610aec57829003601f168201915b505050505081565b610b1961185a565b63ffffffff90911660009081526006602090815260408083206001600160a01b03909416835292905220805460ff19169055565b610b5561185a565b610b5f60006119bd565b565b610b6961185a565b6001600160a01b038116610bb65760405162461bcd60e51b8152602060048201526014602482015273496e76616c69642041717561206164647265737360601b6044820152606401610804565b600380546001600160a01b0319166001600160a01b0392909216919091179055565b60005b92915050565b6001600160a01b03811630145b949350505050565b610bfe61185a565b828114610c3f5760405162461bcd60e51b815260206004820152600f60248201526e098cadccee8d040dad2e6dac2e8c6d608b1b6044820152606401610804565b60005b83811015610db4576000838383818110610c5e57610c5e61288e565b9050602002016020810190610c739190611e93565b6001600160a01b031603610cc15760405162461bcd60e51b8152602060048201526015602482015274496e76616c696420746f6b656e206164647265737360581b6044820152606401610804565b828282818110610cd357610cd361288e565b9050602002016020810190610ce89190611e93565b60046000878785818110610cfe57610cfe61288e565b90506020020135815260200190815260200160002060006101000a8154816001600160a01b0302191690836001600160a01b03160217905550828282818110610d4957610d4961288e565b9050602002016020810190610d5e9190611e93565b6001600160a01b0316858583818110610d7957610d7961288e565b905060200201357f5480718cbffecdb87b0dda598e1ec366b45a645327b3d98494a91e9594981f0460405160405180910390a3600101610c42565b5050505050565b333014610ddc5760405162a19dbf60e81b8152336004820152602401610804565b6003546001600160a01b0316610e05576040516307f990ab60e31b815260040160405180910390fd5b600082516001600160401b03811115610e2057610e2061237f565b604051908082528060200260200182016040528015610e49578160200160208202803683370190505b50905060005b8351811015610f3b5760046000858381518110610e6e57610e6e61288e565b6020026020010151815260200190815260200160002060009054906101000a90046001600160a01b0316828281518110610eaa57610eaa61288e565b60200260200101906001600160a01b031690816001600160a01b03168152505060006001600160a01b0316828281518110610ee757610ee761288e565b60200260200101516001600160a01b031603610f3357838181518110610f0f57610f0f61288e565b602002602001015160405163b3bdaa2960e01b815260040161080491815260200190565b600101610e4f565b5060035460405163cbdbde6f60e01b81526000916001600160a01b03169063cbdbde6f90610f75908a908a908a9088908a9060040161291a565b6020604051808303816000875af1158015610f94573d6000803e3d6000fd5b505050506040513d601f19601f82011682018060405250810190610fb89190612978565b6040805160808101825263ffffffff808d168083526001600160a01b03808d16602080860182815260018789018181524260608a019081526000868152600986528b81208d8252909552938a902098518954935191511515600160c01b0260ff60c01b1992909716640100000000026001600160c01b03199094169816979097179190911795909516929092178555905193909201929092559151929350917fa7b98d7669702a9b76295f3fb748811666e33c326cd48279d0f161c7970730939061108a9085908d908c908990612991565b60405180910390a3505050505050505050565b6110a5611e27565b63ffffffff8b1660009081526005602052604090205460ff166110e35760405163280f27cb60e21b815263ffffffff8c166004820152602401610804565b6001600160a01b038a166111155760405163b5bc199d60e01b81526001600160a01b038b166004820152602401610804565b8584146111565760405162461bcd60e51b815260206004820152600f60248201526e098cadccee8d040dad2e6dac2e8c6d608b1b6044820152606401610804565b600089896040516111689291906129c8565b60408051918290039091203360009081526007602052918220805491935082611190836129d8565b9190505590506000338d8d8d8d8d8d8d896040516020016111b9999897969594939291906127ee565b60405160208183030381529060405290506112228e8288888080601f01602080910402602001604051908101604052809392919081815260200183838082843760009201829052506040805180820190915234815260208101919091529250339150611a0d9050565b93506040518060a00160405280336001600160a01b031681526020018f63ffffffff16815260200184815260200142815260200160001515815250600860008660000151815260200190815260200160002060008201518160000160006101000a8154816001600160a01b0302191690836001600160a01b0316021790555060208201518160000160146101000a81548163ffffffff021916908363ffffffff160217905550604082015181600101556060820151816002015560808201518160030160006101000a81548160ff0219169083151502179055509050508d63ffffffff16336001600160a01b03167fd51a2d5cb9aefd08d962347fa2f4aca4840469ce3376ca1db9ae9d0aadbbc3c785876000015160405161134e929190918252602082015260400190565b60405180910390a35050509a9950505050505050505050565b61136f61185a565b61093e61137c82846129ff565b611b18565b63ffffffff8416600090815260026020908152604080832061ffff871684529091528120805460609291906113b59061285a565b80601f01602080910402602001604051908101604052809291908181526020018280546113e19061285a565b801561142e5780601f106114035761010080835404028352916020019161142e565b820191906000526020600020905b81548152906001019060200180831161141157829003601f168201915b50505050509050805160000361147e5783838080601f016020809104026020016040519081016040528093929190818152602001838380828437600092019190915250929450610bee9350505050565b600083900361148e579050610bee565b6002831061150c576114d584848080601f016020809104026020016040519081016040528093929190818152602001838380828437600092019190915250611c2a92505050565b806114e38460028188612ad2565b6040516020016114f593929190612afc565b604051602081830303815290604052915050610bee565b8383604051639a6d49cd60e01b8152600401610804929190612b24565b61153161185a565b63ffffffff166000908152600560205260409020805460ff19169055565b61155761185a565b60405163ca5eb5e160e01b81526001600160a01b0382811660048301527f0000000000000000000000000000000000000000000000000000000000000000169063ca5eb5e190602401600060405180830381600087803b1580156115ba57600080fd5b505af1158015610db4573d6000803e3d6000fd5b6115d661185a565b63ffffffff90911660009081526006602090815260408083206001600160a01b03909416835292905220805460ff19166001179055565b61161561185a565b6001600160a01b03811661163f57604051631e4fbdf760e01b815260006004820152602401610804565b610984816119bd565b60006020820180359060019083906116609086611fe3565b63ffffffff1681526020810191909152604001600020541492915050565b63ffffffff811660009081526001602052604081205480610bdb5760405163f6ff4fb760e01b815263ffffffff84166004820152602401610804565b600080808080806116cd8a8c018c612b38565b955095509550955095509550600084805190602001209050306001600160a01b031663913c78ab8f60000160208101906117079190611fe3565b8f8a8a8a8a8a6040518863ffffffff1660e01b815260040161172f9796959493929190612bed565b600060405180830381600087803b15801561174957600080fd5b505af192505050801561175a575060015b61184a57611766612c86565b806308c379a0036117dc575061177a612ca2565b8061178557506117de565b8e60000160208101906117989190611fe3565b63ffffffff168e7f8c10a0f19518d900b0b9ad29daefd5cbd2e080c1243a393ed5d01d1dce5d5e4d836040516117ce919061229b565b60405180910390a35061184a565b505b6117eb60208f018f611fe3565b63ffffffff168d7f8c10a0f19518d900b0b9ad29daefd5cbd2e080c1243a393ed5d01d1dce5d5e4d604051611841906020808252600d908201526c2ab735b737bbb71032b93937b960991b604082015260600190565b60405180910390a35b5050505050505050505050505050565b6000546001600160a01b03163314610b5f5760405163118cdaa760e01b8152336004820152602401610804565b63ffffffff8216600081815260016020908152604091829020849055815192835282018390527f238399d427b947898edb290f5ff0f9109849b1c3ba196a42e35f00c50a54b98b910160405180910390a15050565b60408051808201909152600080825260208201527f00000000000000000000000000000000000000000000000000000000000000006001600160a01b031663ddc28c586040518060a001604052808863ffffffff16815260200161193f8961167e565b8152602001878152602001868152602001851515815250306040518363ffffffff1660e01b8152600401611974929190612d2b565b6040805180830381865afa158015611990573d6000803e3d6000fd5b505050506040513d601f19601f820116820180604052508101906119b49190612df2565b95945050505050565b600080546001600160a01b038381166001600160a01b0319831681178455604051919092169283917f8be0079c531659141344cd1fd0a4f28419497f9722a3daafe3b4186f6b6457e09190a35050565b611a15611e27565b6000611a248460000151611c56565b602085015190915015611a3e57611a3e8460200151611c7e565b7f00000000000000000000000000000000000000000000000000000000000000006001600160a01b0316632637a450826040518060a001604052808b63ffffffff168152602001611a8e8c61167e565b81526020018a815260200189815260200160008960200151111515815250866040518463ffffffff1660e01b8152600401611aca929190612d2b565b60806040518083038185885af1158015611ae8573d6000803e3d6000fd5b50505050506040513d601f19601f82011682018060405250810190611b0d9190612e0e565b979650505050505050565b60005b8151811015611bef57611b4a828281518110611b3957611b3961288e565b602002602001015160400151611c2a565b818181518110611b5c57611b5c61288e565b60200260200101516040015160026000848481518110611b7e57611b7e61288e565b60200260200101516000015163ffffffff1663ffffffff1681526020019081526020016000206000848481518110611bb857611bb861288e565b60200260200101516020015161ffff1661ffff1681526020019081526020016000209081611be69190612eb9565b50600101611b1b565b507fbe4864a8e820971c0247f5992e2da559595f7bf076a21cb5928d443d2a13b67481604051611c1f9190612f78565b60405180910390a150565b600281015161ffff811660031461093e5781604051639a6d49cd60e01b8152600401610804919061229b565b6000813414611c7a576040516304fb820960e51b8152346004820152602401610804565b5090565b60007f00000000000000000000000000000000000000000000000000000000000000006001600160a01b031663e4fe1d946040518163ffffffff1660e01b8152600401602060405180830381865afa158015611cde573d6000803e3d6000fd5b505050506040513d601f19601f82011682018060405250810190611d029190613003565b90506001600160a01b038116611d2b576040516329b99a9560e11b815260040160405180910390fd5b6040805133602482018190527f00000000000000000000000000000000000000000000000000000000000000006001600160a01b03818116604485015260648085018890528551808603909101815260849094019094526020830180516001600160e01b03166323b872dd60e01b17905261093e938516928690611db0908590611db6565b50505050565b600080602060008451602086016000885af180611dd9576040513d6000823e3d81fd5b50506000513d91508115611df1578060011415611dfe565b6001600160a01b0384163b155b15611db057604051635274afe760e01b81526001600160a01b0385166004820152602401610804565b60405180606001604052806000801916815260200160006001600160401b03168152602001611e69604051806040016040528060008152602001600081525090565b905290565b6001600160a01b038116811461098457600080fd5b8035611e8e81611e6e565b919050565b600060208284031215611ea557600080fd5b8135611eb081611e6e565b9392505050565b600060208284031215611ec957600080fd5b5035919050565b600060608284031215611ee257600080fd5b50919050565b60008083601f840112611efa57600080fd5b5081356001600160401b03811115611f1157600080fd5b602083019150836020828501011115611f2957600080fd5b9250929050565b600080600080600080600060e0888a031215611f4b57600080fd5b611f558989611ed0565b96506060880135955060808801356001600160401b0380821115611f7857600080fd5b611f848b838c01611ee8565b909750955060a08a01359150611f9982611e6e565b90935060c08901359080821115611faf57600080fd5b50611fbc8a828b01611ee8565b989b979a50959850939692959293505050565b803563ffffffff81168114611e8e57600080fd5b600060208284031215611ff557600080fd5b611eb082611fcf565b6000806040838503121561201157600080fd5b82359150602083013561202381611e6e565b809150509250929050565b6000806040838503121561204157600080fd5b61204a83611fcf565b946020939093013593505050565b6000806040838503121561206b57600080fd5b61207483611fcf565b9150602083013561202381611e6e565b6000806040838503121561209757600080fd5b823561204a81611e6e565b60008083601f8401126120b457600080fd5b5081356001600160401b038111156120cb57600080fd5b6020830191508360208260051b8501011115611f2957600080fd5b80358015158114611e8e57600080fd5b600080600080600080600080600080600060e08c8e03121561211757600080fd5b6121208c611fcf565b9a5061212e60208d01611e83565b99506001600160401b038060408e0135111561214957600080fd5b6121598e60408f01358f01611ee8565b909a50985060608d013581101561216f57600080fd5b61217f8e60608f01358f016120a2565b909850965060808d013581101561219557600080fd5b6121a58e60808f01358f016120a2565b909650945060a08d01358110156121bb57600080fd5b506121cc8d60a08e01358e01611ee8565b90935091506121dd60c08d016120e6565b90509295989b509295989b9093969950565b815181526020808301519082015260408101610bdb565b803561ffff81168114611e8e57600080fd5b6000806040838503121561222b57600080fd5b61223483611fcf565b915061224260208401612206565b90509250929050565b60005b8381101561226657818101518382015260200161224e565b50506000910152565b6000815180845261228781602086016020860161224b565b601f01601f19169290920160200192915050565b602081526000611eb0602083018461226f565b60008060008060a085870312156122c457600080fd5b6122ce8686611ed0565b935060608501356001600160401b038111156122e957600080fd5b6122f587828801611ee8565b909450925050608085013561230981611e6e565b939692955090935050565b6000806000806040858703121561232a57600080fd5b84356001600160401b038082111561234157600080fd5b61234d888389016120a2565b9096509450602087013591508082111561236657600080fd5b50612373878288016120a2565b95989497509550505050565b634e487b7160e01b600052604160045260246000fd5b606081018181106001600160401b03821117156123b4576123b461237f565b60405250565b601f8201601f191681016001600160401b03811182821017156123df576123df61237f565b6040525050565b600082601f8301126123f757600080fd5b81356001600160401b038111156124105761241061237f565b604051612427601f8301601f1916602001826123ba565b81815284602083860101111561243c57600080fd5b816020850160208301376000918101602001919091529392505050565b60006001600160401b038211156124725761247261237f565b5060051b60200190565b600082601f83011261248d57600080fd5b8135602061249a82612459565b6040516124a782826123ba565b80915083815260208101915060208460051b8701019350868411156124cb57600080fd5b602086015b848110156124e757803583529183019183016124d0565b509695505050505050565b600080600080600080600060e0888a03121561250d57600080fd5b61251688611fcf565b965060208801359550604088013561252d81611e6e565b9450606088013561253d81611e6e565b935060808801356001600160401b038082111561255957600080fd5b6125658b838c016123e6565b945060a08a013591508082111561257b57600080fd5b6125878b838c0161247c565b935060c08a013591508082111561259d57600080fd5b506125aa8a828b0161247c565b91505092959891949750929550565b60008060008060008060008060008060c08b8d0312156125d857600080fd5b6125e18b611fcf565b99506125ef60208c01611e83565b985060408b01356001600160401b038082111561260b57600080fd5b6126178e838f01611ee8565b909a50985060608d013591508082111561263057600080fd5b61263c8e838f016120a2565b909850965060808d013591508082111561265557600080fd5b6126618e838f016120a2565b909650945060a08d013591508082111561267a57600080fd5b506126878d828e01611ee8565b915080935050809150509295989b9194979a5092959850565b6000608082019050825182526001600160401b03602084015116602083015260408301516126db604084018280518252602090810151910152565b5092915050565b600080602083850312156126f557600080fd5b82356001600160401b0381111561270b57600080fd5b612717858286016120a2565b90969095509350505050565b6000806000806060858703121561273957600080fd5b61274285611fcf565b935061275060208601612206565b925060408501356001600160401b0381111561276b57600080fd5b61237387828801611ee8565b60006060828403121561278957600080fd5b611eb08383611ed0565b81835281816020850137506000828201602090810191909152601f909101601f19169091010190565b81835260006001600160fb1b038311156127d557600080fd5b8260051b80836020870137939093016020019392505050565b6001600160a01b038a811682528916602082015260c06040820181905260009061281b908301898b612793565b828103606084015261282e81888a6127bc565b905082810360808401526128438186886127bc565b9150508260a08301529a9950505050505050505050565b600181811c9082168061286e57607f821691505b602082108103611ee257634e487b7160e01b600052602260045260246000fd5b634e487b7160e01b600052603260045260246000fd5b60008151808452602080850194506020840160005b838110156128de5781516001600160a01b0316875295820195908201906001016128b9565b509495945050505050565b60008151808452602080850194506020840160005b838110156128de578151875295820195908201906001016128fe565b6001600160a01b0386811682528516602082015260a0604082018190526000906129469083018661226f565b828103606084015261295881866128a4565b9050828103608084015261296c81856128e9565b98975050505050505050565b60006020828403121561298a57600080fd5b5051919050565b84815283602082015260018060a01b03831660408201526080606082015260006129be60808301846128a4565b9695505050505050565b8183823760009101908152919050565b6000600182016129f857634e487b7160e01b600052601160045260246000fd5b5060010190565b6000612a0a83612459565b60408051612a1883826123ba565b85815260208082019350600587901b860136811115612a3657600080fd5b865b81811015612ac55780356001600160401b0380821115612a585760008081fd5b818a01915060608236031215612a6e5760008081fd5b8651612a7981612395565b612a8283611fcf565b8152612a8f868401612206565b868201528783013582811115612aa55760008081fd5b612ab1368286016123e6565b828a01525088525050948201948201612a38565b5091979650505050505050565b60008085851115612ae257600080fd5b83861115612aef57600080fd5b5050820193919092039150565b60008451612b0e81846020890161224b565b8201838582376000930192835250909392505050565b602081526000610bee602083018486612793565b60008060008060008060c08789031215612b5157600080fd5b8635612b5c81611e6e565b95506020870135612b6c81611e6e565b945060408701356001600160401b0380821115612b8857600080fd5b612b948a838b016123e6565b95506060890135915080821115612baa57600080fd5b612bb68a838b0161247c565b94506080890135915080821115612bcc57600080fd5b50612bd989828a0161247c565b92505060a087013590509295509295509295565b63ffffffff8816815260208082018890526001600160a01b0387811660408401528616606083015260e06080830181905260009190612c2e9084018761226f565b83810360a08501528551808252602080880192019060005b81811015612c6257835183529284019291840191600101612c46565b505084810360c0860152612c7681876128e9565b9c9b505050505050505050505050565b600060033d1115612c9f5760046000803e5060005160e01c5b90565b600060443d1015612cb05790565b6040516003193d81016004833e81513d6001600160401b038160248401118184111715612cdf57505050505090565b8285019150815181811115612cf75750505050505090565b843d8701016020828501011115612d115750505050505090565b612d20602082860101876123ba565b509095945050505050565b6040815263ffffffff8351166040820152602083015160608201526000604084015160a06080840152612d6160e084018261226f565b90506060850151603f198483030160a0850152612d7e828261226f565b60809690960151151560c08501525050506001600160a01b039190911660209091015290565b600060408284031215612db657600080fd5b604051604081018181106001600160401b0382111715612dd857612dd861237f565b604052825181526020928301519281019290925250919050565b600060408284031215612e0457600080fd5b611eb08383612da4565b600060808284031215612e2057600080fd5b604051612e2c81612395565b8251815260208301516001600160401b0381168114612e4a57600080fd5b6020820152612e5c8460408501612da4565b60408201529392505050565b601f821115612eb4576000816000526020600020601f850160051c81016020861015612e915750805b601f850160051c820191505b81811015612eb057828155600101612e9d565b5050505b505050565b81516001600160401b03811115612ed257612ed261237f565b612ee681612ee0845461285a565b84612e68565b602080601f831160018114612f1b5760008415612f035750858301515b600019600386901b1c1916600185901b178555612eb0565b600085815260208120601f198616915b82811015612f4a57888601518255948401946001909101908401612f2b565b5085821015612f685787850151600019600388901b60f8161c191681555b5050505050600190811b01905550565b600060208083018184528085518083526040925060408601915060408160051b87010184880160005b83811015612ff557888303603f190185528151805163ffffffff1684528781015161ffff16888501528601516060878501819052612fe18186018361226f565b968901969450505090860190600101612fa1565b509098975050505050505050565b60006020828403121561301557600080fd5b8151611eb081611e6e56fea2646970667358221220c693e211eecbcba2d86f84878f18cf8149092be07125b81146019caec5ab67bb64736f6c63430008160033",
  "linkReferences": {},
  "deployedLinkReferences": {}
}